:020000040800F2
:100000002004002045010008B13700084D04000815
:10001000AD370008B1010008C93A0008000000002F
:10002000000000000000000000000000453900084A
:10003000B501000800000000B3370008413A00088D
:100040005F0100085F0100085F0100085F01000810
:100050005F0100085F0100085F0100085F01000800
:100060005F0100085F0100085F0100085F010008F0
:100070005F0100085F0100085F0100085F010008E0
:100080005F0100085F0100085F0100085F010008D0
:100090005F0100085F0100085F0100085F010008C0
:1000A0005F0100085F0100085F0100085F010008B0
:1000B0005F0100085F0100085F0100085F010008A0
:1000C0005F0100085F0100085F0100085F01000890
:1000D0005F0100085F0100085F0100085F01000880
:1000E0005F0100085F0100085F0100085F01000870
:1000F0005F0100085F0100085F0100085F01000860
:100100005F0100085F0100085F0100085F0100084F
:100110005F0100085F0100085F0100085F0100083F
:100120005F0100085F0100085F0100085F0100082F
:10013000DFF80CD000F02AF8004800474D3B0008DB
:10014000200400200648804706480047FEE7FEE7F7
:10015000FEE7FEE7FEE7FEE7FEE7FEE7FEE7FEE777
:10016000693A00083101000840EA01039B070AD1FF
:1001700002E008C9121F08C0042AFAD203E011F8ED
:10018000013B00F8013B521EF9D27047064C074D67
:1001900006E0E06840F0010394E807009847103457
:1001A000AC42F6D3FFF7C8FFA4410008C4410008E1
:1001B00000BFFEE77047000051B14FF0204252F8F7
:1001C000202042F001024FF0204343F8202009E0B4
:1001D0004FF0204252F82020034B1A404FF02043AA
:1001E00043F8202070470000FEFF0F00D0E9011205
:1001F0001143C26811430269114342691143826984
:100200001143C2691143026A1143426A1143826A6F
:100210001143C26A1143026B11434FF0204302683D
:1002200043F822108168082908D11A46016852F85B
:10023000211041F04001026843F82210416B096827
:10024000426B526841EA0211426B926841EA022114
:10025000426BD26841EA0241426B126941EA0251A3
:10026000426B526941EA0261426B92691143026832
:10027000521C4FF0204343F82210C16AB1F5804F61
:100280001AD1816B0968826B526841EA0211826B54
:10029000926841EA0221826B126941EA0251826B43
:1002A000526941EA0261826B92691143026803EB71
:1002B0008202C2F8041108E06FF070414FF0204351
:1002C000026803EB8202C2F8041170472DE9F04185
:1002D00000220023002400250026002791F803C0F7
:1002E0000CF00F0291F803C01CF0100F03D091F82E
:1002F00002C04CEA0202B1F800C01CF0FF0F31D07E
:10030000066800242BE04FF0010C0CFA04F5B1F85C
:1003100000C00CEA0503AB4220D1A5004FF00F0C42
:100320000CFA05F7BE4302FA05FC4CEA060691F802
:1003300003C0BCF1280F06D14FF0010C0CFA04FCED
:10034000C0F814C00AE091F803C0BCF1480F05D111
:100350004FF0010C0CFA04FCC0F810C0641C082C0F
:10036000D1D30660B1F800C0BCF1FF0F34DD4668A0
:1003700000242EE004F1080C4FF0010808FA0CF5F7
:10038000B1F800C00CEA0503AB4221D1A5004FF043
:100390000F0C0CFA05F7BE4302FA05FC4CEA060600
:1003A00091F803C0BCF1280F05D104F1080C08FA3C
:1003B0000CF8C0F8148091F803C0BCF1480F07D1C5
:1003C00004F1080C4FF0010808FA0CF8C0F810808E
:1003D000641C082CCED34660BDE8F0812DE9F843BB
:1003E00004460D4616461F46DDF8208000BF16F86D
:1003F000019B3B464A4629462046CDF8008003F043
:10040000D9F9E82C03DA04F1080084B209E0B5F563
:10041000987F04DA002405F1100085B201E0002481
:10042000002530780028E2D1BDE8F88370B5054694
:100430000C46A4F12000044A02EB001110222846C9
:10044000FFF792FE70BD0000B43B000800BFFEE75E
:1004500010B500215E4A12780B2A07D05C4A127848
:100460000C2A03D05A4A12780A2A46D100BF022227
:100470004FF0C0431A800022564B1A8000BF00BFC5
:10048000032253071A800022524B1A8000BF00BF7C
:1004900004224FF0C0431A8000224E4B1A8000BF46
:1004A00000BF05224FF0C0431A80EF22494B1A804B
:1004B00000BF00BF062213071A800022454B1A8096
:1004C00000BF00BF07224FF0C0431A800022414BFB
:1004D0001A8000BF00BF08224FF0C0431A800122DB
:1004E0003C4B1A8000BF00BF09224FF0C0431A8066
:1004F0003F22384B1A8000BF5AE000BF344A1278BE
:10050000121F0B2A07D2DFE802F0191A06060606A8
:100510002D2F2E06500000BF20224FF0C0431A801E
:1005200000222C4B1A8000BF00BF21224FF0C04395
:100530001A800022274B1A8000BF37E000BF00BF9F
:100540004E224FF0C0431A800022224B1A8000BF77
:1005500000BF4F224FF0C0431A8000221D4B1A806B
:1005600000BF23E000BF00BF00231A1202234FF098
:10057000C0442380174B1A8000BF00BF03225307DB
:100580001A800022134B1A8000BF00231A12062380
:100590002380104B1A8000BF00BF072223461A8019
:1005A00000220C4B1A8000BF00E000BF00BF00BF5C
:1005B00000BF22224FF0C0431A8000BF002102E09A
:1005C000044A1080491CB1F5963FF9D310BD0000D4
:1005D000000000200000026010B500F003F800F0F9
:1005E0002BF810BD08B50121080203F021F9012103
:1005F000612003F02DF94FF68070ADF80000032064
:100600008DF8020018208DF8030069460848FFF7AE
:100610005DFE4CF6B370ADF8000003208DF80200CB
:1006200018208DF8030069460248FFF74FFE08BD09
:10063000001801400014014000B597B00A20019055
:10064000002002900A20039000200490059006905C
:100650000790089009900A9010200B9000200C90B1
:100660000E900F9010904FF4805011900020129037
:100670000D901390149001A8159008A8FFF7B6FDEF
:10068000032001900020029003200390002004909A
:1006900005900690079001A8169008A8FFF7A6FD00
:1006A00001210020FFF788FD17B000BD10B5FFF74E
:1006B00093FF642003F03AFA00BF00204FF0C041DE
:1006C0000880FF4800880446A4F51340253801D06F
:1006D000C01E7ED10120FB49087000BFE7204FF00B
:1006E000C04108801020F649088000BF00BF0020EC
:1006F0004FF0C04108800120F149088000BF00BFD1
:100700004FF0C04108800002ED49088000BF00BFE3
:1007100002204FF0C04108804FF4E060E8490880B3
:1007200000BF00BF03204107088041F23000E449C8
:10073000088000BF00BF04204FF0C04108800020A7
:10074000DF49088000BF00BF08204FF0C04108808B
:1007500040F20720DA49088000BF00BF09204FF0AF
:10076000C04108800020D649088000BF00BF0A2091
:100770004FF0C04108800020D149088000BF00BF71
:100780000C20C10608800120CD49088000BF00BFB1
:100790000D204FF0C04108800020C949088000BFEB
:1007A00000BF0F204FF0C04108800020C4490880DE
:1007B00000BF00BF10204FF0C04108800020C0499A
:1007C000088000BF00BF11204FF0C0410880072003
:1007D00000E097E1BA49088000BF00BF12204FF047
:1007E000C04108800020B649088000BF00BF132028
:1007F000410708800020B249088000BF322003F082
:1008000095F900BF10204FF0C041088041F2905090
:10081000AB49088000BF00BF11204FF0C0410880E5
:1008200040F22720A649088000BF322003F07EF95D
:1008300000BF12204FF0C04108809C20A0490880D2
:1008400000BF322003F072F900BF13204107088077
:100850004FF4C8509A49088000BF00BF29204FF0CC
:10086000C041088023209649088000BF00BF2B208C
:10087000410708800E209249088000BF322003F013
:1008800055F900BF20204FF0C041088000208C495E
:10089000088000BF00BF21204FF0C0410880002029
:1008A0008749088000BF322003F040F900BF3020A4
:1008B0004106088007208249088000BF00BF312020
:1008C0004FF0C041088040F207707D49088000BFAA
:1008D00000BF32204FF0C0410880062078490880D0
:1008E00000BF00BF35204FF0C041088040F20470C7
:1008F0007349088000BF00BF36200107088041F619
:1009000004706F49088000BF00BF37204FF0C0411E
:10091000088004206A49088000BF00BF38204FF0DB
:10092000C041088000206649088000BF00BF392010
:100930004FF0C041088040F206706149088000BF56
:1009400000BF3C204FF0C041088040F201705C497C
:10095000088000BF00BF3D204FF0C04108800F203D
:100960005749088000BF322003F0E0F800BF502054
:100970004FF0C041088000205149088000BF00BFEF
:1009800051204FF0C0410880EF204D49088000BF42
:1009900000BF52204FF0C041088000204849088025
:1009A00000BF00BF53204107088040F23F10444978
:1009B000088000BF00BF6020010608804FF4274078
:1009C0003F49088000BF00BF61204FF0C041088050
:1009D00001203B49088000BF00BF6A204FF0C041A2
:1009E000088000203649088000BF00BF80204FF0FB
:1009F000C041088000203249088000BF00BF81202C
:100A00004FF0C041088000202D49088000BF00BF82
:100A100082204FF0C041088000202949088000BF93
:100A200000BF83204107088000202549088000BFBF
:100A300000BF84204FF0C04108800020204908807A
:100A400000BF00BF85204FF0C041088000201C4936
:100A5000088000BF00BF90204FF0C04108801020E8
:100A60001749088000BF00BF92204FF0C0410880A6
:100A700000201349088000BF00BF93204107088071
:100A800003200F49088000BF00BF95204FF0C041F0
:100A900008804FF488700A49088000BF00BF972083
:100AA0004FF0C041088000200549088000BF00BF0A
:100AB00098208106088000200149088000BF03E0DB
:100AC000000002600000002000BF07204FF0C0417E
:100AD000088040F23310FF49088000BF00BF20208B
:100AE0004FF0C04108800020FA49088000BF00BFD5
:100AF00021204FF0C04108800020F649088000BF47
:100B000002F0E7BDA4F51340203802D0B4F5134F2E
:100B10007ED10020F049087000BF4FF0C04108802E
:100B2000EC49088000BF00BF01204FF0C0410880A1
:100B30000002E849088000BF00BF02204FF0C0411A
:100B400008804FF4E060E349088000BF00BF032045
:100B50004107088041F21800DE49088000BF00BF4D
:100B600004204FF0C04108800020DA49088000BF0F
:100B700000BF08204FF0C041088040F20220D54954
:100B8000088000BF00BF09204FF0C041088000204E
:100B9000D049088000BF00BF0A204FF0C041088044
:100BA0000020CC49088000BF00BF0C20C10608808F
:100BB0000120C849088000BF00BF0D204FF0C04190
:100BC00008800020C349088000BF00BF0F204FF0FD
:100BD000C04108800020BF49088000BF642002F0A7
:100BE000A5FF00BF07204FF0C041088040F2011070
:100BF000B849088000BF642002F098FF00BF1020B1
:100C00004FF0C04108804FF48650B249088000E0A0
:100C1000E2E000BF00BF11204FF0C0410880072074
:100C2000AC49088000BF00BF12204FF0C0410880CF
:100C30004FF48870A749088000BF00BF1320410708
:100C400008804FF43060A349088000BF00BF29200E
:100C50004FF0C041088000209E49088000BF00BFBF
:100C60002B204107088044F210009A49088000BFF9
:100C700000BF50204FF0C0410880002095490880F7
:100C800000BF00BF51204FF0C0410880EF209149C4
:100C9000088000BF00BF52204FF0C04108800020F4
:100CA0008C49088000BF00BF53204107088040F2F4
:100CB0003F108849088000BF00BF602001060880FF
:100CC0004FF41C508349088000BF00BF61204FF0E3
:100CD000C041088001207F49088000BF00BF6A2012
:100CE0004FF0C041088000207A49088000BF00BF53
:100CF00080204FF0C041088000207649088000BF66
:100D000000BF81204FF0C041088000207149088059
:100D100000BF00BF82204FF0C041088000206D4915
:100D2000088000BF00BF8320410708800020694978
:100D3000088000BF00BF84204FF0C0410880002021
:100D40006449088000BF00BF85204FF0C041088083
:100D500000206049088000BF00BF90204FF0C041D4
:100D6000088010205B49088000BF00BF92204FF030
:100D7000C041088000205749088000BF00BF932071
:100D80004107088001205349088000BF00BF95201B
:100D90004FF0C04108804FF488704E49088000BF72
:100DA00000BF97204FF0C0410880002049490880CB
:100DB00000BF00BF982081060880002045490880B8
:100DC00000BF00BF07204FF0C041088040F2731001
:100DD0004049088000BF93E6A4F5134031387DD127
:100DE00003203D49087000BFE7204FF0C041088054
:100DF00041F214003749088000BF00BF01204FF0C6
:100E0000C041088000023349088000BF00BF0220B3
:100E10004FF0C041088000022E49088000BF00BF8B
:100E200003204107088041F230002A49088000BFB2
:100E300000BF08204FF0C041088040F20220254941
:100E4000088000BF00BF09204FF0C041088000208B
:100E50002049088000BF00BF0A204FF0C041088031
:100E600000201C49088000BF00BF0C20C10608807C
:100E700000201849088000BF00BF0D204FF0C0417E
:100E8000088000201349088000BF00BF0F204FF0EA
:100E9000C041088000200F49088000BF00BF10201B
:100EA0004FF0C041088000200A49088000BF00BF01
:100EB00011204FF0C041088007200649088000BF7C
:100EC00000BF12204FF0C041088000200149088077
:100ED00000BF04E0000002600000002065E100BFE8
:100EE0001320410708800020FF49088000BFC82068
:100EF00002F01CFE00BF10204FF0C041088041F2FC
:100F00009060F949088000BF00BF11204FF0C04138
:100F1000088040F22720F449088000BF322002F008
:100F200005FE00BF12204FF0C04108800C20EE49A2
:100F3000088000BF322002F0F9FD00BF13204107F6
:100F400008804FF40060E849088000BF00BF2920F6
:100F50004FF0C04108801120E349088000BF00BF66
:100F60002B20410708800B20DF49088000BF32207A
:100F700002F0DCFD00BF20204FF0C04108800020BF
:100F8000D949088000BF00BF21204FF0C041088030
:100F90000020D549088000BF00BF302041060880EE
:100FA0000020D149088000BF00BF31204FF0C04170
:100FB00008804FF48370CC49088000BF00BF322006
:100FC0004FF0C04108800020C749088000BF00BF23
:100FD00035204FF0C04108804FF40170C2490880AD
:100FE00000BF00BF36200107088041F20A60BE49F9
:100FF000088000BF00BF37204FF0C041088040F29A
:101000000770B949088000BF00BF38204FF0C041C9
:1010100008804FF48370B449088000BF00BF3920B6
:101020004FF0C041088040F20770AF49088000BF10
:1010300000BF3C204FF0C041088040F20240AA4966
:10104000088000BF00BF3D204FF0C041088040F63F
:101050000F40A549088000BF00BF50204FF0C0419D
:1010600008800020A049088000BF00BF51204FF039
:10107000C0410880EF209C49088000BF00BF52207B
:101080004FF0C041088000209749088000BF00BF92
:1010900053204107088040F23F109349088000BF69
:1010A00000BF6020010608804FF41C508E49088064
:1010B00000BF00BF61204FF0C041088001208A4975
:1010C000088000BF00BF6A204FF0C04108800020A8
:1010D0008549088000BF00BF80204FF0C0410880D4
:1010E00000208149088000BF00BF81204FF0C0412F
:1010F000088000207C49088000BF00BF82204FF09C
:10110000C041088000207849088000BF00BF8320CC
:101110004107088000207449088000BF00BF842078
:101120004FF0C041088000206F49088000BF00BF19
:1011300085204FF0C041088000206B49088000BF27
:1011400000BF90204FF0C041088010206649088001
:1011500000BF00BF92204FF0C041088008156249CF
:10116000088000BF00BF07204FF0C0410880212049
:101170005D49088000BF322002F0D8FC00BF072084
:101180004FF0C041088061205749088000BF3220DD
:1011900002F0CCFC00BF07204FF0C041088040F2B5
:1011A00033105149088000BFAAE4A4F5194019384A
:1011B0007ED10E204D49087000BF28204FF0C0415D
:1011C000088006204849088000BF00BF00204FF07B
:1011D000C041088001204449088000BF00BF1020A2
:1011E0004FF0C041088000203F49088000BF00BF89
:1011F00001204FF0C041088047F2EF203A490880B3
:1012000000BF00BF02204FF0C041088008153649DA
:10121000088000BF00BF03204107088046F6382041
:101220003149088000BF00BF11204FF0C041088045
:1012300046F674002C49088000BF00BF0F204FF015
:10124000C041088000202849088000BF00BF0B2053
:101250004107088045F208302349088000BF00BFDD
:101260000C20C106088003201F49088000BF00BF72
:101270000D204FF0C04108800A201B49088000BFA4
:1012800000BF0E204FF0C04108804FF4385016497F
:10129000088000BF00BF1E204FF0C0410880BE2064
:1012A0001149088000BF00BF25204FF0C04100E079
:1012B000A0E008804FF400400B49088000BF00BF49
:1012C0002620010708804FF4F0400749088000BF3E
:1012D00000BF27204FF0C0410880782002490880D5
:1012E00000BF00BF4E2003E00000026000000020AD
:1012F0004FF0C04108800020FF49088000BF00BFB8
:101300004F204FF0C04108800020FB49088000BFFB
:1013100000BF12204FF0C041088040F6D900F649C6
:10132000088000BF00BF3020410608800020F2493D
:10133000088000BF00BF31204FF0C04108804FF44B
:101340008270ED49088000BF00BF32204FF0C041DD
:1013500008804FF48070E849088000BF00BF332048
:101360004107088040F20530E349088000BF00BF14
:1013700034204FF0C041088040F20550DE4908801B
:1013800000BF00BF35204FF0C041088040F205305B
:10139000D949088000BF00BF36200107088040F20D
:1013A0000770D549088000BF00BF37204FF0C0410B
:1013B00008804815D049088000BF00BF3A204FF090
:1013C000C04108804FF49050CB49088000BF00BF57
:1013D0003B20410708804FF40060C749088000BFE8
:1013E00000BF07204FF0C04108803320C249088069
:1013F00000BFF0E4A4F5A850053802D010F58050E5
:101400007ED10920BD49087000BFE5204FF0C041E2
:1014100008804FF40040B849088000BF00BF00209A
:101420004FF0C04108800120B349088000BF00BFD1
:101430002B20410708801020AF49088000BF00BF63
:1014400001204FF0C04108800002AB49088000BF76
:1014500000BF02204FF0C04108804FF4E060A64971
:10146000088000BF00BF03204107088041F2180038
:10147000A149088000BF00BF04204FF0C041088090
:1014800000209D49088000BF00BF08204FF0C041E8
:10149000088040F202209849088000BF00BF092060
:1014A0004FF0C041088000209349088000BF00BF72
:1014B0000A204FF0C041088000208F49088000BFFB
:1014C00000BF0C20C106088000208B49088000BFA7
:1014D00000BF0D204FF0C0410880002086490880E1
:1014E00000BF00BF0F204FF0C0410880002082499C
:1014F000088000BF00BF50204FF0C041088000E0CE
:1015000082E100207C49088000BF00BF51204FF0DD
:10151000C0410880EF207849088000BF00BF5220FA
:101520004FF0C041088000207349088000BF00BF11
:1015300053204107088040F23F106F49088000BFE8
:1015400000BF6020010608804FF41C506A490880E3
:1015500000BF00BF61204FF0C041088001206649F4
:10156000088000BF00BF6A204FF0C0410880002003
:101570006149088000BF00BF80204FF0C041088053
:1015800000205D49088000BF00BF81204FF0C041AE
:10159000088000205849088000BF00BF82204FF01B
:1015A000C041088000205449088000BF00BF83204C
:1015B0004107088000205049088000BF00BF8420F8
:1015C0004FF0C041088000204B49088000BF00BF99
:1015D00085204FF0C041088000204749088000BFA7
:1015E00000BF90204FF0C041088010204249088081
:1015F00000BF00BF92204FF0C041088000203E494C
:10160000088000BF00BF93204107088003203A49AB
:10161000088000BF00BF95204FF0C04108804FF404
:1016200088703549088000BF00BF97204FF0C04147
:10163000088000203049088000BF00BF9820810644
:10164000088000202C49088000BF00BF10204FF008
:10165000C041088000202849088000BF00BF112039
:101660004FF0C041088000202349088000BF00BF20
:1016700012204FF0C041088000201F49088000BFA1
:1016800000BF13204107088000201B49088000BFCD
:10169000642002F04BFA00BF10204FF0C0410880D8
:1016A00041F2B0701449088000BF00BF11204FF014
:1016B000C041088004201049088000BF322002F099
:1016C00035FA00BF12204FF0C04108804FF49F70E0
:1016D0000949088000BF322002F028FA00BF132019
:1016E000410708804FF4F8500349088000BF00BF4D
:1016F00029204FF0C04103E00000026000000020FC
:1017000008800F20FF49088000BF322002F00EFA47
:1017100000BF20204FF0C04108800020F949088018
:1017200000BF00BF21204FF0C04108800020F549D4
:10173000088000BF00BF3020410608804FF40170D0
:10174000F049088000BF00BF31204FF0C041088041
:101750000120EC49088000BF00BF32204FF0C0419B
:1017600008800020E749088000BF00BF35204FF007
:10177000C041088040F20620E249088000BF00BF57
:101780003620010708800815DE49088000BF00BF29
:1017900037204FF0C04108804FF4A060D94908803D
:1017A00000BF00BF38204FF0C041088040F2055014
:1017B000D449088000BF00BF39204FF0C0410880E5
:1017C00040F20740CF49088000BF00BF3C204FF0E7
:1017D000C04108804FF4A060CA49088000BF00BF24
:1017E0003D204FF0C041088040F20350C5490880B9
:1017F00000BF00BF07204FF0C041088040F27310C7
:10180000C049088000BFCFE4A4F5094089387ED1E3
:101810000520BD49087000BF00204FF0C04108807E
:101820000120B849088000BF322002F07FF900BFD4
:101830000320410708804AF6A400B249088000BF8F
:10184000322002F073F900BF0C20C106088000208E
:10185000AC49088000BF322002F068F900BF0D20BB
:101860004FF0C041088040F60C00A649088000BF38
:10187000322002F05BF900BF0E204FF0C04108801B
:101880004FF42C509F49088000BF322002F04EF9DF
:1018900000BF1E204FF0C0410880B0209949088049
:1018A00000BF322002F042F900BF01204FF0C041DA
:1018B000088042F63F309349088000BF322002F092
:1018C00035F900BF02204FF0C041088008158D494E
:1018D000088000BF322002F029F900BF10204FF02D
:1018E000C041088000208749088000BF322002F0F4
:1018F0001DF900BF11204FF0C041088046F2700072
:101900008049088000BF322002F010F900E079E140
:1019100000BF05204FF0C0410880002079490880B1
:1019200000BF322002F002F900BF06200107088044
:1019300000207449088000BF322002F0F7F800BF91
:101940001620010708804EF61C706E49088000BF03
:10195000322002F0EBF800BF17204FF0C0410880A2
:1019600003206849088000BF322002F0DFF800BF82
:1019700007204FF0C041088040F2331061490880D1
:1019800000BF322002F0D2F800BF0B2041070880D0
:1019900000205C49088000BF322002F0C7F800BF79
:1019A0000F204FF0C041088000205649088000BF3A
:1019B000322002F0BBF800BF41204FF0C041088048
:1019C00000205049088000BF322002F0AFF800BF6D
:1019D00042204FF0C041088000204A49088000BFE3
:1019E000322002F0A3F800BF48204FF0C041088029
:1019F00000204449088000BF322002F097F800BF61
:101A000049204FF0C041088040F23F103D49088016
:101A100000BF322002F08AF800BF4A204FF0C041D8
:101A2000088000203749088000BF322002F07EF88D
:101A300000BF4B204107088000203249088000BFCA
:101A4000322002F073F800BF44204FF0C0410880FC
:101A50004FF46F402B49088000BF322002F066F837
:101A600000BF45204FF0C041088000202549088074
:101A700000BF322002F05AF800BF4620010708805C
:101A800040F23F101F49088000BF322002F04EF89C
:101A900000BF30204106088040F2077019490880D5
:101AA00000BF322002F042F800BF31204FF0C041A9
:101AB00008804FF401701349088000BF322002F003
:101AC00035F800BF32204FF0C04108804FF401705C
:101AD0000C49088000BF322002F028F800BF3320F4
:101AE0004107088040F202500649088000BF3220BA
:101AF00002F01CF800BF34204FF0C041088040F2D3
:101B0000075003E00000026000000020FF49088049
:101B100000BF322002F00AF800BF35204FF0C0416C
:101B200008804FF40170F949088000BF322001F0AD
:101B3000FDFF00BF3620010708804FF40170F34914
:101B4000088000BF322001F0F1FF00BF37204FF0C6
:101B5000C041088040F20250EC49088000BF3220AA
:101B600001F0E4FF00BF3A204FF0C041088040F28E
:101B70000230E649088000BF322001F0D7FF00BFE5
:101B80003B204107088040F20230E049088000BF56
:101B9000322001F0CBFF00BF232041070880002046
:101BA000DA49088000BF322001F0C0FF00BF2420C6
:101BB0004FF0C04108800020D449088000BF322087
:101BC00001F0B4FF00BF25204FF0C04108804FF462
:101BD0000040CE49088000BF322001F0A7FF00BFBF
:101BE0004F204FF0C04108800020C849088000BF46
:101BF00000BF4E204FF0C04108800020C34908803C
:101C000000BF00E6A4F5094099387DD10420C04901
:101C1000087000BF28204FF0C04108800620BB4953
:101C2000088000BF00BF00204FF0C04108800120A5
:101C3000B649088000BF00BF0320410708804AF66C
:101C4000A460B249088000BF00BF0C20C106088014
:101C50000420AE49088000BF00BF0D204FF0C041F6
:101C600008800C20A949088000BF00BF0E204FF05B
:101C7000C04108804FF42050A449088000BF00BF35
:101C80001E204FF0C0410880B520A049088000BF49
:101C900000BF01204FF0C041088043F63F309B4910
:101CA000088000BF00BF02204FF0C0410880081527
:101CB0009649088000BF00BF10204FF0C041088047
:101CC00000209249088000BF00BF11204FF0C041A2
:101CD000088046F630008D49088000BF00BF05200F
:101CE0004FF0C041088000208849088000BF00BF35
:101CF00006200107088000208449088000BF00BF3B
:101D000016200107088000E01FE14EF61C707F4995
:101D1000088000BF00BF07204FF0C041088033207B
:101D20007A49088000BF00BF0B20410708800020CF
:101D30007649088000BF00BF0F204FF0C0410880E7
:101D400000207249088000BF00BF41204FF0C04111
:101D5000088000206D49088000BF00BF42204FF07E
:101D6000C041088000206949088000BF00BF4820AA
:101D70004FF0C041088000206449088000BF00BFC8
:101D800049204FF0C041088040F23F105F49088071
:101D900000BF00BF4A204FF0C041088000205B49CF
:101DA000088000BF00BF4B20410708800020574932
:101DB000088000BF00BF44204FF0C04108804FF4AE
:101DC0006F405249088000BF00BF45204FF0C0411E
:101DD000088000204D49088000BF00BF4620010751
:101DE000088040F23F104949088000BF00BF4E20E4
:101DF0004FF0C041088000204449088000BF00BF68
:101E00004F204FF0C041088000204049088000BFAB
:101E100000BF30204106088040F207703B4908802F
:101E200000BF00BF31204FF0C041088040F20220C7
:101E30003649088000BF00BF32204FF0C041088003
:101E40004FF401703149088000BF00BF33204107C3
:101E5000088040F202502D49088000BF00BF3420A6
:101E60004FF0C041088040F207502849088000BF69
:101E700000BF35204FF0C04108804FF40170234966
:101E8000088000BF00BF3620010708804FF40170B2
:101E90001E49088000BF00BF37204FF0C0410880B6
:101EA00040F202501949088000BF00BF3A204FF0AD
:101EB000C041088040F202301449088000BF00BFD2
:101EC0003B204107088040F202301049088000BFE3
:101ED00000BF23204107088000200C49088000BF74
:101EE00000BF24204FF0C04108800020074908802F
:101EF00000BF00BF25204FF0C04108804FF40040D4
:101F00000249088000BF00BF262003E000000260F5
:101F100000000020010708804FF4E040FD490880E0
:101F200000BF00BF20204FF0C04108804BF2EB0003
:101F3000F849088000BF00BF27204FF0C04108804B
:101F40007C20F449088000BF5DE4A4F5A84008386F
:101F50007ED10820F049087000BF01204FF0C04139
:101F600008800002EB49088000BF00BF02204FF04C
:101F7000C04108804FF4E060E649088000BF00BF20
:101F800003204107088041F23000E249088000BF89
:101F900000BF04204FF0C04108800020DD490880C8
:101FA00000BF00BF08204FF0C041088040F207206A
:101FB000D849088000BF00BF09204FF0C041088009
:101FC0000020D449088000BF00BF0A204FF0C04164
:101FD00008800020CF49088000BF00BF0C20C10648
:101FE00008800020CB49088000BF00BF0D204FF0C3
:101FF000C04108800020C749088000BF00BF0F20F3
:102000004FF0C04108800020C249088000BF322044
:1020100001F08CFD00BF07204FF0C041088040F266
:102020000110BC49088000BF322001F07FFD00BFD5
:1020300010204FF0C041088041F2B060B5490880DF
:1020400000BF00BF11204FF0C0410880012000E018
:10205000DCE0B049088000BF00BF17204FF0C0414E
:1020600008800120AB49088000BF00BF12204FF05C
:10207000C04108804FF49C70A649088000BF00BF93
:102080001320410708804FF40060A249088000BF78
:1020900000BF29204FF0C041088009209D490880D9
:1020A00000BF00BF2A204FF0C04108800920994995
:1020B000088000BF00BFA4204FF0C041088000206E
:1020C0009449088000BF00BF50204FF0C0410880F5
:1020D00000209049088000BF00BF51204FF0C04150
:1020E0000880EF208B49088000BF00BF52204FF0CE
:1020F000C041088000208749088000BF00BF5320EE
:102100004107088040F23F108249088000BF00BFAD
:102110006020010608804FF41C507E49088000BFF3
:1021200000BF61204FF0C04108800320794908803A
:1021300000BF00BF6A204FF0C041088000207549F1
:10214000088000BF00BF80204FF0C0410880002001
:102150007049088000BF00BF81204FF0C041088057
:1021600000206C49088000BF00BF82204FF0C041B2
:10217000088000206749088000BF00BF8320410716
:10218000088000206349088000BF00BF84204FF012
:10219000C041088000205F49088000BF00BF852043
:1021A0004FF0C041088000205A49088000BF00BF9E
:1021B00090204FF0C041088013205649088000BF8E
:1021C00000BF92204FF0C041088000205149088094
:1021D00000BF00BF93204107088003204D490880BD
:1021E00000BF00BF95204FF0C04108804FF48870B9
:1021F0004849088000BF00BF07204FF0C041088059
:1022000040F273104349088000BFFAE4A4F58A4005
:1022100031387ED107204049087000BF00204FF0C0
:10222000C041088001203B49088000BF00BF10204A
:102230004FF0C04108804FF4C5603649088000BFA8
:1022400000BF12204FF0C0410880062031490880AD
:1022500000BF00BF13204107088040F632202D49FF
:10226000088000BF00BF11204FF0C041088040200F
:102270002849088000BF00BF15204FF0C0410880EA
:1022800050202449088000BF00BF12204FF0C041F9
:10229000088016201F49088000BF322001F046FC4C
:1022A00000BF10204FF0C041088045F2606019491E
:1022B000088000BF322001F039FC00BF1320410725
:1022C000088042F64E201349088000BF00BF01205D
:1022D0004FF0C041088000020E49088000BF00BFD7
:1022E00002204FF0C041088048150A49088000BF0D
:1022F00000BF03204107088041F2300005490880F3
:1023000000BF00BF08204FF0C041088040F202200B
:1023100004E0CDE00000026000000020FF490880DA
:1023200000BF00BF0A204FF0C04108800020FB49D9
:10233000088000BF00BF3020410608800020F74918
:10234000088000BF00BF31204FF0C041088040F23C
:102350000240F249088000BF00BF32204FF0C04168
:1023600008804FF48370ED49088000BF00BF332020
:10237000410708804FF4E060E849088000BF00BFD3
:1023800034204FF0C04108804FF48270E349088048
:1023900000BF00BF35204FF0C041088040F201303F
:1023A000DE49088000BF00BF36200107088040F2E8
:1023B0000770DA49088000BF00BF37204FF0C041E6
:1023C000088040F20530D549088000BF00BF3820A2
:1023D0004FF0C04108804FF40270D049088000BF20
:1023E00000BF39204FF0C041088040F60B70CB4948
:1023F000088000BF322001F099FB00BF41204FF060
:10240000C04108800220C549088000BF00BF60208D
:10241000010608804FF41C50C049088000BF00BF6F
:1024200061204FF0C04108800120BC49088000BFF6
:1024300000BF90204FF0C041088040F21910B7490A
:10244000088000BF00BF92204FF0C04108804FF4C9
:102450008570B249088000BF00BF93204107088003
:102460000420AE49088000BF00BFA0204FF0C0414B
:1024700008804FF48070A949088000BF322001F025
:1024800055FB00BF07204FF0C041088040F23310D9
:10249000A249088000BF322001F048FB00BFA02005
:1024A0004FF0C041088000209C49088000BF4BE5E8
:1024B000A4F58A4035387ED10D209949087000BFB7
:1024C00015204FF0C041088030209449088000BF9B
:1024D00000BF9A204FF0C041088010208F4908802B
:1024E00000BF00BF11204FF0C041088020208B4961
:1024F000088000BF00BF10204FF0C041088043F2A9
:1025000028408649088000BF00BF12204FF0C0411C
:10251000088002208149088000BF00BF13204107C6
:10252000088041F238007D49088000BF282001F072
:10253000FDFA00BF12204FF0C041088077490880A3
:1025400000BF282001F0F2FA00BF10204FF0C04178
:10255000088043F220407149088000BF00BF13206B
:102560004107088043F245006C49088000BF4620BF
:1025700001F0DCFA00BF30204106088000206749E6
:10258000088000BF00BF31204FF0C041088040F2FA
:1025900002406249088000BF00BF32204FF0C041B6
:1025A000088040F207305D49088000BF00BF33203B
:1025B0004107088000E0E0E04FF44170574908808F
:1025C00000BF00BF34204FF0C041088004205349B1
:1025D000088000BF00BF35204FF0C041088040F2A6
:1025E00001404E49088000BF00BF36200107088027
:1025F00040F207704949088000BF00BF37204FF004
:10260000C041088040F205304449088000BF00BF47
:1026100038204FF0C04108804FF4C2603F49088025
:1026200000BF00BF39204FF0C04108804FF4C260A6
:102630003A49088000BF00BF01204FF0C041088028
:1026400000023649088000BF00BF02204FF0C041A1
:10265000088048153149088000BF00BF03204107AA
:10266000088041F230002D49088000BF00BF0820DB
:102670004FF0C041088040F608002849088000BF9C
:1026800000BF0A204FF0C04108800820234908807D
:1026900000BF00BF6020010608804FF41C501F4996
:1026A000088000BF00BF61204FF0C04108800120BA
:1026B0001A49088000BF00BF90204FF0C041088039
:1026C0004FF49F701549088000BF00BF92204FF063
:1026D000C04108804FF480701049088000BF00BFDF
:1026E0009320410708804FF480700C49088000BF98
:1026F00000BFA0204FF0C04108804814074908805F
:1027000000BF00BFA32041070880102003490880B4
:1027100000BF00BF07204FF0C04103E0000002608F
:102720000000002008800120FF49088000BF00BF92
:1027300007204FF0C04108802120FB49088000BFDE
:1027400000BF07204FF0C04108802320F6490880D1
:1027500000BF00BF07204FF0C04108803320F2497E
:10276000088000BF00BF07204FF0C041088040F242
:102770003310ED49088000BF47E5472C7ED10B2080
:10278000EA49087000BFEA204FF0C04108800020ED
:10279000E549088000BF00BFEB20410708802020EA
:1027A000E149088000BF00BFEC20C10608800C2072
:1027B000DD49088000BF00BFED204FF0C041088018
:1027C000C420D949088000BF00BFE8204FF0C041B5
:1027D00008804020D449088000BF00BFE9204FF0A6
:1027E000C04108803820D049088000BF00BFF120D8
:1027F0004FF0C04108800120CB49088000BF00BFD6
:10280000F2204FF0C04108801020C749088000BF67
:1028100000BF27204FF0C0410880A320C249088094
:1028200000BF00BF40204FF0C04108800120BE49DA
:10283000088000BF00BF41204FF0C0410880002049
:10284000B949088000BF00BF42204FF0C041088056
:102850000020B549088000BF00BF43204107088021
:102860001020B149088000BF00BF44204FF0C04194
:1028700008800E20AC49088000BF00E05EE100BF88
:1028800045204FF0C04108802420A749088000BFA0
:1028900000BF4620010708800420A349088000BF2C
:1028A00000BF47204FF0C041088050209E4908805B
:1028B00000BF00BF48204FF0C041088002209A4965
:1028C000088000BF00BF49204FF0C041088013209E
:1028D0009549088000BF00BF4A204FF0C0410880E2
:1028E00019209149088000BF00BF4B204107088094
:1028F00019208D49088000BF00BF4C20C106088008
:1029000016208949088000BF00BF50204FF0C04109
:1029100008801B208449088000BF00BF51204FF071
:10292000C041088031208049088000BF00BF52208C
:102930004FF0C04108802F207B49088000BF00BFB6
:102940005320410708803F207749088000BF00BF1F
:1029500054204FF0C04108803F207349088000BFD9
:1029600000BF55204FF0C04108803E206E490880CE
:1029700000BF00BF5620010708802F206A49088049
:1029800000BF00BF57204FF0C04108807B20664940
:10299000088000BF00BF58208106088009206249D6
:1029A000088000BF00BF59204FF0C04108800620BA
:1029B0005D49088000BF00BF5A204FF0C041088029
:1029C00006205949088000BF00BF5B2041070880EE
:1029D0000C205549088000BF00BF5C204FF0C0416B
:1029E00008801D205049088000BF00BF5D204FF0C7
:1029F000C0410880CC204C49088000BF00BF1B208C
:102A00004107088018204849088000BF00BF1A20ED
:102A10004FF0C041088001204349088000BF00BF3B
:102A200024204FF0C041088015203F49088000BF96
:102A300000BF25204FF0C041088050203A4908804F
:102A400000BF00BF2320410708808B203649088043
:102A500000BF00BF18208106088036203249088058
:102A600000BF00BF19204FF0C041088001202E494F
:102A7000088000BF00BF4FF0C041088000202A49F5
:102A8000088000BF00BF1F204FF0C0410880882091
:102A90002549088000BF322001F048F800BF1F2000
:102AA0004FF0C041088080201F49088000BF3220BD
:102AB00001F03CF800BF1F204FF0C041088090207B
:102AC0001949088000BF322001F030F800BF1F20F4
:102AD0004FF0C0410880D0201349088000BF322049
:102AE00001F024F800BF17204FF0C04108800520F6
:102AF0000D49088000BF00BF362001070880002074
:102B00000949088000BF00BF28204FF0C04108805D
:102B100038200549088000BF322001F007F800BFC7
:102B200028204FF0C04103E00000026000000020B8
:102B300008803C20FE49088000BFB8E4A4F5EE40C0
:102B400083387ED10620FB49087000BFFF204FF07C
:102B5000C04108800120F649088000BF00BFF32073
:102B6000410708800820F249088000BF00BF01200B
:102B70004FF0C04108800002ED49088000BF00BF4F
:102B800002204FF0C04108804FF4E060E84908801F
:102B900000BF00BF03204107088041F23000E44934
:102BA000088000BF00BF08204FF0C041088040F2FD
:102BB0000230DF49088000BF00BF08204FF0C0414D
:102BC000088040F20720DA49088000BF00BF0920D2
:102BD0004FF0C04108800020D549088000BF00BFE9
:102BE0000A204FF0C04108800020D149088000BF72
:102BF00000BF10204FF0C04108800020CC49088061
:102C000000BF00BF11204FF0C04108800520C84917
:102C1000088000BF00BF12204FF0C0410880002094
:102C2000C349088000BF00BF13204107088000206F
:102C3000BF49088000BF322000F078FF00BF10209D
:102C400000E0EBE04FF0C041088041F2B020B8490D
:102C5000088000BF322000F069FF00BF11204FF054
:102C6000C04108800720B249088000BF322000F030
:102C70005DFF00BF12204FF0C04108808B20AC499F
:102C8000088000BF322000F051FF00BF1320410731
:102C900008804FF4B850A649088000BF322000F0E9
:102CA00045FF00BF29204FF0C04108802220A049E5
:102CB000088000BF00BF30204106088000209C49EA
:102CC000088000BF00BF31204FF0C041088040F2B3
:102CD00007709749088000BF00BF32204FF0C04105
:102CE000088040F205509249088000BF00BF35209F
:102CF0004FF0C041088040F207108D49088000BFA6
:102D000000BF36200107088008208949088000BFDD
:102D100000BF37204FF0C041088000208449088060
:102D200000BF00BF38204FF0C041088040F20220B1
:102D30007F49088000BF00BF39204FF0C0410880A4
:102D40004FF483707A49088000BF00BF3C204FF0E9
:102D5000C041088040F202207549088000BF00BFD2
:102D60003D204FF0C04108804FF4816070490880D9
:102D700000BF322000F0DAFE00BF50204FF0C0410B
:102D8000088000206A49088000BF00BF51204FF032
:102D9000C0410880EF206649088000BF00BF522074
:102DA0004FF0C041088000206149088000BF00BF8B
:102DB00053204107088040F23F105D49088000BF62
:102DC00000BF6020010608804FF427405849088062
:102DD00000BF00BF61204FF0C0410880012054496E
:102DE000088000BF00BF90204FF0C0410880332012
:102DF0004F49088000BF00BF2B20410708800B20EF
:102E00004B49088000BF00BF07204FF0C041088039
:102E100040F233104649088000BFADE400BF672090
:102E20004FF0C0410880424800880446462C7ED1BD
:102E30000A204049087000BF4620010708809420FE
:102E40003B49088000BF00BF472021070880412080
:102E50003749088000BF00BF4820210708800020B4
:102E60003349088000BF00BF492021070880332074
:102E70002F49088000BF00BF4A2021070880232077
:102E80002B49088000BF00BF4B2041070880452028
:102E90002749088000BF00BF4C20C106088044209D
:102EA0002349088000BF00BF4D20210708807720FC
:102EB0001F49088000BF00BF4E2021070880122054
:102EC0001B49088000BF00BF4F2021070880CC208D
:102ED0001749088000BF00BF502021070880462006
:102EE0001349088000BF00BF5120210708808220BD
:102EF0000F49088000BF00BF022021070880002082
:102F00000B49088000BF00BF032041070880002054
:102F10000749088000BF00BF042021070880012066
:102F20000349088000BF00BF0520210704E083E1BA
:102F3000000002600000002008803F20FF49088058
:102F400000BF00BF0620010708800020FB49088061
:102F500000BF00BF0720210708800020F749088034
:102F600000BF00BF0820210708800020F349088027
:102F700000BF00BF092021070880EF20EF4908802B
:102F800000BF00BF0120210708800620EB49088010
:102F900000BF00BF162001070880C820E74908804D
:102FA00000BF00BF2320410708809520E349088027
:102FB00000BF00BF2420210708809520DF4908803A
:102FC00000BF00BF252021070880FF20DB490880C3
:102FD00000BF00BF2720210708800220D7490880B2
:102FE00000BF00BF2820210708800220D3490880A5
:102FF00000BF00BF2920210708800220CF49088098
:1030000000BF00BF2A20210708800220CB4908808A
:1030100000BF00BF2C20C10608800220C7490880DD
:1030200000BF00BF2D20210708800220C34908806F
:1030300000BF00BF3A20210708800120BF49088057
:1030400000BF00BF3B20410708800120BB4908802A
:1030500000BF00BF3C2021070880F020B74908804E
:1030600000BF00BF3D20210708800020B349088031
:1030700000BF022000F05AFD00BF35202107088064
:103080003820AE49088000BF00BF36200107088005
:103090007820AA49088000BF00BF3E202107088091
:1030A0003820A649088000BF00BF402021070880C3
:1030B0000F20A249088000BF00BF412021070880DF
:1030C000F0209E49088000BF00BF1920210708801A
:1030D00049209A49088000BF00BF9320410708801B
:1030E0000F209649088000BF012000F01FFD00BF9F
:1030F00020202107088030209049088000BF00BFB1
:103100001D202107088007208C49088000BF00BFD0
:103110001E202107088000208849088000BF00BFCA
:103120001F202107088007208449088000BF00BFB6
:103130004420210708804D208049088000BF00BF3F
:1031400045202107088013207C49088000BF01200A
:1031500000F0ECFC00BF1C20210708800420774908
:10316000088000BF022000F0E1FC00BF43204107BF
:10317000088080207149088000BF052000F0D6FC3F
:1031800000BF1B204107088008206C49088000BF51
:10319000042000F0CBFC00BF1B204107088010205A
:1031A0006649088000BF042000F0C0FC00BF9020EA
:1031B000210708807F206149088000BF00BF2620CA
:1031C0000107088004205D49088000BF00F0AEFCC4
:1031D00000BF26200107088024205849088000BF2E
:1031E00000BF2620010708802C205449088000BF1A
:1031F000042000F09BFC00BF2620010708803C2033
:103200004E49088000BF00BF5720210708800220D8
:103210004A49088000BF00BF5520210708800020D0
:103220004649088000BF00BF5720210708800020C2
:103230004249088000BF00BF472C7ED10C20404986
:10324000087000BF42204FF0C041088008203B4971
:10325000088000BF00BF462001070880B42037491E
:10326000088000BF00BF47204FF0C04108804320C6
:103270003249088000BF00BF48204FF0C04108809D
:1032800013202E49088000BF00BF49204FF0C041E5
:10329000088047202949088000BF00BF4A204FF01E
:1032A000C041088014202549088000BF00BF4B2082
:1032B0004107088036202149088000BF00BF4C200C
:1032C000C106088003201D49088000BF00BF4D20B3
:1032D0004FF0C041088046201849088000BF00BF59
:1032E0004E204FF0C041088005201449088000BFDF
:1032F00000BF4F204FF0C041088010200F490880C8
:1033000000BF00BF50204FF0C041088008200B498B
:10331000088000BF00BF51204FF0C04108800A2044
:103320000649088000BF00BF02204FF0C04108805E
:1033300000200249088000BF04E0CAE100000260EA
:103340000000002000BF0320410708800020E3495F
:10335000088000BF00BF04204FF0C041088000205B
:10336000DE49088000BF00BF05204FF0C041088043
:10337000EF20DA49088000BF00BF0620010708805F
:103380000020D649088000BF00BF07204FF0C04191
:1033900008800020D149088000BF00BF08204FF0FE
:1033A000C04108800120CD49088000BF00BF09202E
:1033B0004FF0C04108803F20C849088000BF0A2064
:1033C00000F0B4FB00BF01204FF0C0410880062090
:1033D000C249088000BF00BF162001070880C8202E
:1033E000BE49088000BF00BF232041070880952008
:1033F000BA49088000BF00BF24204FF0C0410880B8
:103400009520B649088000BF00BF25204FF0C0417D
:103410000880FF20B149088000BF00BF27204FF07F
:10342000C04108800220AD49088000BF00BF2820AD
:103430004FF0C04108800220A849088000BF00BFAB
:1034400029204FF0C04108800220A449088000BF15
:1034500000BF2A204FF0C041088002209F49088009
:1034600000BF00BF2C20C106088002209B490880B5
:1034700000BF00BF2D204FF0C041088002209749B7
:10348000088000BF00BF3A204FF0C04108800120F3
:103490009249088000BF00BF3B20410708800120FF
:1034A0008E49088000BF00BF3C204FF0C04108801B
:1034B000F0208A49088000BF00BF3D204FF0C04186
:1034C000088000208549088000BF142000F02EFBF2
:1034D00000BF35204FF0C041088038207F49088068
:1034E00000BF00BF36200107088078207B49088094
:1034F00000BF00BF3E204FF0C04108803820774910
:10350000088000BF00BF40204FF0C04108800F205E
:103510007249088000BF00BF41204FF0C0410880C1
:10352000F0206E49088000BF00BF38204FF0C04136
:10353000088000206949088000BF00BF19204FF0B3
:10354000C041088049206549088000BF00BF932022
:10355000410708800A206149088000BF00F0E6FAB0
:1035600000BF20204FF0C04108805C49088000BFA8
:1035700000BF1D204FF0C04108800320574908803C
:1035800000BF00BF1E204FF0C041088000205349FB
:10359000088000BF00BF1F204FF0C04108800920F5
:1035A0004E49088000BF00BF44204FF0C041088052
:1035B00053204A49088000BF00BF45204FF0C0415A
:1035C000088010204549088000BF0A2000F0AEFAAC
:1035D00000BF1C204FF0C041088004203F490880F4
:1035E00000BF142000F0A2FA00BF4320410708806A
:1035F00080203A49088000BF052000F097FA00BFFC
:103600001B20410708800A203449088000BF282079
:1036100000F08CFA00BF1B204107088012202F49C0
:10362000088000BF282000F081FA00BF90204FF0F2
:10363000C04108807F202949088000BF00BF2620A4
:103640000107088004202549088000BF282000F0D9
:103650006DFA00BF26200107088024201F4908803A
:1036600000BF00BF2620010708802C201B490880CE
:1036700000BF282000F05AFA00BF70204FF0C04170
:10368000088008201549088000BF00BF26200107D8
:1036900008803C201149088000BF00BF57204FF030
:1036A000C041088002200D49088000BF00BF55209E
:1036B0004FF0C041088000200849088000BF00BFCB
:1036C00057204FF0C041088000200449088000BF07
:1036D00000BF322000F02AFA10BD00000000026096
:1036E00030B5F02802DAB1F5A07F00DB30BD00BFB5
:1036F0002C4B1B781B1F0B2B07D2DFE803F0151692
:103700000606060625272606440000BF20234FF0A4
:10371000C0442380244B188000BF00BF2123238096
:10372000214B198000BF2FE000BF00BF4E234FF098
:10373000C04423801C4B188000BF00BF4F23238050
:10374000194B198000BF1FE000BF00BF0312022405
:103750004FF0C0452C80144C238000BF00BF0323D2
:103760005C072380104B188000BF0B1206242C80AE
:103770000D4C238000BF00BF07232C4623800A4B3B
:10378000198000BF00E000BF00BF00BF00BF2223C0
:103790004FF0C044238000BF00BF034B1A8000BF1E
:1037A000A4E70000000000200000026000BFFEE768
:1037B000704770472DE9FF5F04460D4616461F46C9
:1037C000DDF8388031466846FCF730FE4FF00009DE
:1037D00029E01DF809B04FF0000A1DE0CAF107000A
:1037E0004BFA00F010F0010F09D005EB090291B27D
:1037F00004EB0A0290B23A46FFF772FF08E005EBCD
:10380000090291B204EB0A0290B24246FFF768FF48
:103810000AF101001FFA80FABAF1080FDEDB09F1A4
:1038200001001FFA80F9B9F1100FD2DBBDE8FF9F4C
:1038300029B1064A52690243044B5A6104E0034A23
:1038400052698243014B5A617047000000100240E8
:1038500029B1064A92690243044B9A6104E0034A83
:1038600092698243014B9A61704700000010024048
:1038700030B500210022002300242E4D6D6805F094
:103880000C0121B1042905D0082923D105E02A4DD6
:10389000056022E0284D05601FE0264D6D6805F4A7
:1038A0007012244D6D6805F48033022505EB9242B9
:1038B0001BB9224D554305600BE01E4D6D6815F494
:1038C000003F03D01D4D5543056002E01A4D55439E
:1038D000056002E0184D056000BF00BF154D6D6822
:1038E00005F0F0010909164D6C5C0568E54045607E
:1038F000104D6D6805F4E061090A114D6C5C456876
:10390000E54085600B4D6D6805F46051C90A0C4DAA
:103910006C5C4568E540C560064D6D6805F4404146
:10392000890B074D10356C5CC568B5FBF4F5056176
:1039300030BD00000010024000127A0000093D0076
:1039400007000020704710B500F002F810BD00001D
:10395000002000212E4A126842F480322C4B1A605B
:1039600000BF2B4A126802F40031401C11B9B0F5B7
:10397000A06FF6D1264A126812F4003F01D001214F
:1039800000E00021012942D1224A126842F01002CF
:10399000204B1A601A46126822F003021A601A4677
:1039A000126842F002021A60194A5268184B5A60B3
:1039B0001A4652685A601A46526842F480625A6047
:1039C0001A46526822F47C125A601A46526842F42F
:1039D000E8125A601A46126842F080721A6000BFFC
:1039E0000B4A126812F0007FFAD0094A526822F09E
:1039F0000302074B5A601A46526842F002025A60AC
:103A000000BF034A526802F00C02082AF9D170473D
:103A10000010024000200240042808D14FF0E021AD
:103A2000096941F004014FF0E022116107E04FF015
:103A3000E021096921F004014FF0E0221161704793
:103A4000704740B14FF0E021096941F002014FF0A9
:103A5000E022116107E04FF0E021096921F0020145
:103A60004FF0E0221161704710B51348006840F034
:103A700001001149086008464068104908400E4995
:103A80004860084600680E4908400B49086008462F
:103A9000006820F4802008600846406820F4FE009A
:103AA00048604FF41F008860FFF74DFF4FF0006043
:103AB0000449086010BD0000001002400000FFF83B
:103AC000FFFFF6FE08ED00E000BFFEE702E008C8D9
:103AD000121F08C1002AFAD170477047002001E088
:103AE00001C1121F002AFBD17047000000B585B04C
:103AF0006846FFF7BDFE6FF00400FFF78DFF002062
:103B0000FFF79FFF07490198B0FBF1F006490870E5
:103B10004FF4FA510198B0FBF1F00349891C088079
:103B200005B000BD00127A0002000020002209E06A
:103B3000002101E04B1C99B240F275439942F9DB38
:103B4000531C9AB28242F3DB7047000008B5FFF7BE
:103B50008BFFFFF7CBFFFCF7A9FD4FF47840FCF794
:103B600077FC4FF4784300934FF6FF7308A290213F
:103B70004420FCF733FC4FF4784300934FF6FF7377
:103B800007A2A0213420FCF729FC00BFFEE70000BB
:103B900048592D4D696E6953544D3332560000001B
:103BA000446576656C6F706D656E7420426F6172EE
:103BB00064000000000000000000000000000000A1
:103BC00000000000000000183C3C3C1818001818C9
:103BD00000000000000000666666000000000000B3
:103BE0000000000000000036367F3636367F36365D
:103BF000000000000018183C666030180C06663C97
:103C000018180000000070D8DA760C18306E5B1BB4
:103C10000E000000000000386C6C38606F66663B78
:103C2000000000000000001818180000000000004C
:103C3000000000000000000C181830303030301840
:103C4000180C00000000003018180C0C0C0C0C189C
:103C5000183000000000000000361C7F1C360000F9
:103C600000000000000000000018187E1818000076
:103C700000000000000000000000000000001C1C0C
:103C80000C180000000000000000007E0000000092
:103C900000000000000000000000000000001C1CEC
:103CA0000000000000000006060C0C181830306000
:103CB000600000000000001E333737333B3B331EEB
:103CC000000000000000000C1C7C0C0C0C0C0C0C08
:103CD000000000000000003C6666060C1830607EA4
:103CE000000000000000003C6666061C0666663C9C
:103CF000000000000000003030363636667F0606D1
:103D0000000000000000007E6060607C06060C7809
:103D1000000000000000001C18307C666666663CEF
:103D2000000000000000007E060C0C181830303037
:103D3000000000000000003C6666763C6E66663C53
:103D4000000000000000003C666666663E0C183805
:103D50000000000000000000001C1C0000001C1CF3
:103D60000000000000000000001C1C0000001C1CE3
:103D70000C180000000000060C18306030180C060B
:103D8000000000000000000000007E007E00000037
:103D9000000000000000006030180C060C183060B5
:103DA000000000000000003C66660C18180018189F
:103DB000000000000000007EC3C3CFDBDBCFC07F6C
:103DC00000000000000000183C6666667E666666BD
:103DD000000000000000007C6666667C6666667C0B
:103DE000000000000000003C666660606066663CA3
:103DF00000000000000000786C66666666666C78FD
:103E0000000000000000007E6060607C6060607EFA
:103E1000000000000000007E6060607C6060606008
:103E2000000000000000003C666660606E66663E52
:103E300000000000000000666666667E66666666D4
:103E4000000000000000003C181818181818183C52
:103E50000000000000000006060606060666663C36
:103E60000000000000000066666C6C786C6C666692
:103E70000000000000000060606060606060607EC4
:103E8000000000000000006363776B6B6B6363638B
:103E9000000000000000006363737B6F676363636F
:103EA000000000000000003C666666666666663CD0
:103EB000000000000000007C6666667C6060606058
:103EC000000000000000003C666666666666663CB0
:103ED0000C0600000000007C6666667C6C66666608
:103EE000000000000000003C666030180C06663CD4
:103EF000000000000000007E181818181818181884
:103F00000000000000000066666666666666663C45
:103F100000000000000000666666666666663C1883
:103F2000000000000000006363636B6B6B36363685
:103F30000000000000000066663418182C666666F3
:103F400000000000000000666666663C181818183D
:103F5000000000000000007E06060C183060607E45
:103F6000000000000000003C303030303030303095
:103F700030303C000000006060303018180C0C0637
:103F8000060000000000003C0C0C0C0C0C0C0C0C8F
:103F90000C0C3C0000183C66000000000000000013
:103FA0000000000000000000000000000000000011
:103FB0000000FF00000000181818000000000000BA
:103FC0000000000000000000003C06063E66663E61
:103FD0000000000000000060607C66666666667C2B
:103FE0000000000000000000003C66606060663C6D
:103FF0000000000000000006063E66666666663E3B
:104000000000000000000000003C66667E60603C2E
:10401000000000000000001E3030307E30303030B4
:104020000000000000000000003E66666666663E16
:1040300006067C0000000060607C66666666666658
:104040000000000000001818007818181818187ED2
:104050000000000000000C0C003C0C0C0C0C0C0CC4
:104060000C0C7800000000606066666C786C666618
:104070000000000000000078181818181818187EA2
:104080000000000000000000007E6B6B6B6B6B6338
:104090000000000000000000007C66666666666640
:1040A0000000000000000000003C66666666663C9A
:1040B0000000000000000000007C66666666667C0A
:1040C0006060600000000000003E66666666663E56
:1040D000060606000000000000666E70606060600A
:1040E0000000000000000000003E60603C06067C0E
:1040F0000000000000000030307E30303030301ED4
:104100000000000000000000006666666666663E0D
:1041100000000000000000000066666666663C184D
:10412000000000000000000000636B6B6B6B363614
:1041300000000000000000000066663C183C666657
:104140000000000000000000006666666666663CCF
:104150000C18F00000000000007E060C1830607E95
:10416000000000000000000C18181830603018180B
:10417000180C000000000018181818181818181843
:1041800018181800000000301818180C060C181821
:104190001830000000000071DB8E000000000000FD
:1041A00000000000C4410008000000201C000000C6
:1041B000CC3A0008E04100081C0000200404000084
:1041C000DC3A0008000000000000000000000001D0
:1041D000020304010203040607080902040608009A
:0400000508000131BD
:00000001FF
